{
  "_format": "hh-sol-artifact-1",
  "contractName": "MarksheetNFT",
  "sourceName": "contracts/MarksheetNFT.sol",
  "abi": [
    {
      "inputs": [],
      "stateMutability": "nonpayable",
      "type": "constructor"
    },
    {
      "inputs": [],
      "name": "AccessControlBadConfirmation",
      "type": "error"
    },
    {
      "inputs": [
        {
          "internalType": "address",
          "name": "account",
          "type": "address"
        },
        {
          "internalType": "bytes32",
          "name": "neededRole",
          "type": "bytes32"
        }
      ],
      "name": "AccessControlUnauthorizedAccount",
      "type": "error"
    },
    {
      "inputs": [
        {
          "internalType": "address",
          "name": "sender",
          "type": "address"
        },
        {
          "internalType": "uint256",
          "name": "tokenId",
          "type": "uint256"
        },
        {
          "internalType": "address",
          "name": "owner",
          "type": "address"
        }
      ],
      "name": "ERC721IncorrectOwner",
      "type": "error"
    },
    {
      "inputs": [
        {
          "internalType": "address",
          "name": "operator",
          "type": "address"
        },
        {
          "internalType": "uint256",
          "name": "tokenId",
          "type": "uint256"
        }
      ],
      "name": "ERC721InsufficientApproval",
      "type": "error"
    },
    {
      "inputs": [
        {
          "internalType": "address",
          "name": "approver",
          "type": "address"
        }
      ],
      "name": "ERC721InvalidApprover",
      "type": "error"
    },
    {
      "inputs": [
        {
          "internalType": "address",
          "name": "operator",
          "type": "address"
        }
      ],
      "name": "ERC721InvalidOperator",
      "type": "error"
    },
    {
      "inputs": [
        {
          "internalType": "address",
          "name": "owner",
          "type": "address"
        }
      ],
      "name": "ERC721InvalidOwner",
      "type": "error"
    },
    {
      "inputs": [
        {
          "internalType": "address",
          "name": "receiver",
          "type": "address"
        }
      ],
      "name": "ERC721InvalidReceiver",
      "type": "error"
    },
    {
      "inputs": [
        {
          "internalType": "address",
          "name": "sender",
          "type": "address"
        }
      ],
      "name": "ERC721InvalidSender",
      "type": "error"
    },
    {
      "inputs": [
        {
          "internalType": "uint256",
          "name": "tokenId",
          "type": "uint256"
        }
      ],
      "name": "ERC721NonexistentToken",
      "type": "error"
    },
    {
      "anonymous": false,
      "inputs": [
        {
          "indexed": true,
          "internalType": "address",
          "name": "owner",
          "type": "address"
        },
        {
          "indexed": true,
          "internalType": "address",
          "name": "approved",
          "type": "address"
        },
        {
          "indexed": true,
          "internalType": "uint256",
          "name": "tokenId",
          "type": "uint256"
        }
      ],
      "name": "Approval",
      "type": "event"
    },
    {
      "anonymous": false,
      "inputs": [
        {
          "indexed": true,
          "internalType": "address",
          "name": "owner",
          "type": "address"
        },
        {
          "indexed": true,
          "internalType": "address",
          "name": "operator",
          "type": "address"
        },
        {
          "indexed": false,
          "internalType": "bool",
          "name": "approved",
          "type": "bool"
        }
      ],
      "name": "ApprovalForAll",
      "type": "event"
    },
    {
      "anonymous": false,
      "inputs": [
        {
          "indexed": false,
          "internalType": "uint256",
          "name": "_fromTokenId",
          "type": "uint256"
        },
        {
          "indexed": false,
          "internalType": "uint256",
          "name": "_toTokenId",
          "type": "uint256"
        }
      ],
      "name": "BatchMetadataUpdate",
      "type": "event"
    },
    {
      "anonymous": false,
      "inputs": [
        {
          "indexed": false,
          "internalType": "uint256",
          "name": "tokenId",
          "type": "uint256"
        },
        {
          "indexed": false,
          "internalType": "address",
          "name": "student",
          "type": "address"
        },
        {
          "indexed": false,
          "internalType": "string",
          "name": "ipfsHash",
          "type": "string"
        }
      ],
      "name": "MarksheetIssued",
      "type": "event"
    },
    {
      "anonymous": false,
      "inputs": [
        {
          "indexed": false,
          "internalType": "uint256",
          "name": "tokenId",
          "type": "uint256"
        }
      ],
      "name": "MarksheetRevoked",
      "type": "event"
    },
    {
      "anonymous": false,
      "inputs": [
        {
          "indexed": false,
          "internalType": "uint256",
          "name": "_tokenId",
          "type": "uint256"
        }
      ],
      "name": "MetadataUpdate",
      "type": "event"
    },
    {
      "anonymous": false,
      "inputs": [
        {
          "indexed": true,
          "internalType": "bytes32",
          "name": "role",
          "type": "bytes32"
        },
        {
          "indexed": true,
          "internalType": "bytes32",
          "name": "previousAdminRole",
          "type": "bytes32"
        },
        {
          "indexed": true,
          "internalType": "bytes32",
          "name": "newAdminRole",
          "type": "bytes32"
        }
      ],
      "name": "RoleAdminChanged",
      "type": "event"
    },
    {
      "anonymous": false,
      "inputs": [
        {
          "indexed": true,
          "internalType": "bytes32",
          "name": "role",
          "type": "bytes32"
        },
        {
          "indexed": true,
          "internalType": "address",
          "name": "account",
          "type": "address"
        },
        {
          "indexed": true,
          "internalType": "address",
          "name": "sender",
          "type": "address"
        }
      ],
      "name": "RoleGranted",
      "type": "event"
    },
    {
      "anonymous": false,
      "inputs": [
        {
          "indexed": true,
          "internalType": "bytes32",
          "name": "role",
          "type": "bytes32"
        },
        {
          "indexed": true,
          "internalType": "address",
          "name": "account",
          "type": "address"
        },
        {
          "indexed": true,
          "internalType": "address",
          "name": "sender",
          "type": "address"
        }
      ],
      "name": "RoleRevoked",
      "type": "event"
    },
    {
      "anonymous": false,
      "inputs": [
        {
          "indexed": true,
          "internalType": "address",
          "name": "from",
          "type": "address"
        },
        {
          "indexed": true,
          "internalType": "address",
          "name": "to",
          "type": "address"
        },
        {
          "indexed": true,
          "internalType": "uint256",
          "name": "tokenId",
          "type": "uint256"
        }
      ],
      "name": "Transfer",
      "type": "event"
    },
    {
      "inputs": [],
      "name": "DEFAULT_ADMIN_ROLE",
      "outputs": [
        {
          "internalType": "bytes32",
          "name": "",
          "type": "bytes32"
        }
      ],
      "stateMutability": "view",
      "type": "function"
    },
    {
      "inputs": [],
      "name": "ISSUER_ROLE",
      "outputs": [
        {
          "internalType": "bytes32",
          "name": "",
          "type": "bytes32"
        }
      ],
      "stateMutability": "view",
      "type": "function"
    },
    {
      "inputs": [
        {
          "internalType": "address",
          "name": "institution",
          "type": "address"
        }
      ],
      "name": "addInstitution",
      "outputs": [],
      "stateMutability": "nonpayable",
      "type": "function"
    },
    {
      "inputs": [
        {
          "internalType": "address",
          "name": "to",
          "type": "address"
        },
        {
          "internalType": "uint256",
          "name": "tokenId",
          "type": "uint256"
        }
      ],
      "name": "approve",
      "outputs": [],
      "stateMutability": "nonpayable",
      "type": "function"
    },
    {
      "inputs": [
        {
          "internalType": "address",
          "name": "owner",
          "type": "address"
        }
      ],
      "name": "balanceOf",
      "outputs": [
        {
          "internalType": "uint256",
          "name": "",
          "type": "uint256"
        }
      ],
      "stateMutability": "view",
      "type": "function"
    },
    {
      "inputs": [
        {
          "internalType": "uint256",
          "name": "tokenId",
          "type": "uint256"
        }
      ],
      "name": "getApproved",
      "outputs": [
        {
          "internalType": "address",
          "name": "",
          "type": "address"
        }
      ],
      "stateMutability": "view",
      "type": "function"
    },
    {
      "inputs": [
        {
          "internalType": "bytes32",
          "name": "role",
          "type": "bytes32"
        }
      ],
      "name": "getRoleAdmin",
      "outputs": [
        {
          "internalType": "bytes32",
          "name": "",
          "type": "bytes32"
        }
      ],
      "stateMutability": "view",
      "type": "function"
    },
    {
      "inputs": [
        {
          "internalType": "bytes32",
          "name": "role",
          "type": "bytes32"
        },
        {
          "internalType": "address",
          "name": "account",
          "type": "address"
        }
      ],
      "name": "grantRole",
      "outputs": [],
      "stateMutability": "nonpayable",
      "type": "function"
    },
    {
      "inputs": [
        {
          "internalType": "bytes32",
          "name": "role",
          "type": "bytes32"
        },
        {
          "internalType": "address",
          "name": "account",
          "type": "address"
        }
      ],
      "name": "hasRole",
      "outputs": [
        {
          "internalType": "bool",
          "name": "",
          "type": "bool"
        }
      ],
      "stateMutability": "view",
      "type": "function"
    },
    {
      "inputs": [
        {
          "internalType": "address",
          "name": "owner",
          "type": "address"
        },
        {
          "internalType": "address",
          "name": "operator",
          "type": "address"
        }
      ],
      "name": "isApprovedForAll",
      "outputs": [
        {
          "internalType": "bool",
          "name": "",
          "type": "bool"
        }
      ],
      "stateMutability": "view",
      "type": "function"
    },
    {
      "inputs": [
        {
          "internalType": "address",
          "name": "student",
          "type": "address"
        },
        {
          "internalType": "string",
          "name": "ipfsHash",
          "type": "string"
        }
      ],
      "name": "issueMarksheet",
      "outputs": [],
      "stateMutability": "nonpayable",
      "type": "function"
    },
    {
      "inputs": [],
      "name": "name",
      "outputs": [
        {
          "internalType": "string",
          "name": "",
          "type": "string"
        }
      ],
      "stateMutability": "view",
      "type": "function"
    },
    {
      "inputs": [
        {
          "internalType": "uint256",
          "name": "tokenId",
          "type": "uint256"
        }
      ],
      "name": "ownerOf",
      "outputs": [
        {
          "internalType": "address",
          "name": "",
          "type": "address"
        }
      ],
      "stateMutability": "view",
      "type": "function"
    },
    {
      "inputs": [
        {
          "internalType": "address",
          "name": "institution",
          "type": "address"
        }
      ],
      "name": "removeInstitution",
      "outputs": [],
      "stateMutability": "nonpayable",
      "type": "function"
    },
    {
      "inputs": [
        {
          "internalType": "bytes32",
          "name": "role",
          "type": "bytes32"
        },
        {
          "internalType": "address",
          "name": "callerConfirmation",
          "type": "address"
        }
      ],
      "name": "renounceRole",
      "outputs": [],
      "stateMutability": "nonpayable",
      "type": "function"
    },
    {
      "inputs": [
        {
          "internalType": "uint256",
          "name": "tokenId",
          "type": "uint256"
        }
      ],
      "name": "revokeMarksheet",
      "outputs": [],
      "stateMutability": "nonpayable",
      "type": "function"
    },
    {
      "inputs": [
        {
          "internalType": "bytes32",
          "name": "role",
          "type": "bytes32"
        },
        {
          "internalType": "address",
          "name": "account",
          "type": "address"
        }
      ],
      "name": "revokeRole",
      "outputs": [],
      "stateMutability": "nonpayable",
      "type": "function"
    },
    {
      "inputs": [
        {
          "internalType": "address",
          "name": "from",
          "type": "address"
        },
        {
          "internalType": "address",
          "name": "to",
          "type": "address"
        },
        {
          "internalType": "uint256",
          "name": "tokenId",
          "type": "uint256"
        }
      ],
      "name": "safeTransferFrom",
      "outputs": [],
      "stateMutability": "nonpayable",
      "type": "function"
    },
    {
      "inputs": [
        {
          "internalType": "address",
          "name": "from",
          "type": "address"
        },
        {
          "internalType": "address",
          "name": "to",
          "type": "address"
        },
        {
          "internalType": "uint256",
          "name": "tokenId",
          "type": "uint256"
        },
        {
          "internalType": "bytes",
          "name": "data",
          "type": "bytes"
        }
      ],
      "name": "safeTransferFrom",
      "outputs": [],
      "stateMutability": "nonpayable",
      "type": "function"
    },
    {
      "inputs": [
        {
          "internalType": "address",
          "name": "operator",
          "type": "address"
        },
        {
          "internalType": "bool",
          "name": "approved",
          "type": "bool"
        }
      ],
      "name": "setApprovalForAll",
      "outputs": [],
      "stateMutability": "nonpayable",
      "type": "function"
    },
    {
      "inputs": [
        {
          "internalType": "uint256",
          "name": "",
          "type": "uint256"
        }
      ],
      "name": "studentOwners",
      "outputs": [
        {
          "internalType": "address",
          "name": "",
          "type": "address"
        }
      ],
      "stateMutability": "view",
      "type": "function"
    },
    {
      "inputs": [
        {
          "internalType": "bytes4",
          "name": "interfaceId",
          "type": "bytes4"
        }
      ],
      "name": "supportsInterface",
      "outputs": [
        {
          "internalType": "bool",
          "name": "",
          "type": "bool"
        }
      ],
      "stateMutability": "view",
      "type": "function"
    },
    {
      "inputs": [],
      "name": "symbol",
      "outputs": [
        {
          "internalType": "string",
          "name": "",
          "type": "string"
        }
      ],
      "stateMutability": "view",
      "type": "function"
    },
    {
      "inputs": [
        {
          "internalType": "uint256",
          "name": "tokenId",
          "type": "uint256"
        }
      ],
      "name": "tokenURI",
      "outputs": [
        {
          "internalType": "string",
          "name": "",
          "type": "string"
        }
      ],
      "stateMutability": "view",
      "type": "function"
    },
    {
      "inputs": [
        {
          "internalType": "address",
          "name": "from",
          "type": "address"
        },
        {
          "internalType": "address",
          "name": "to",
          "type": "address"
        },
        {
          "internalType": "uint256",
          "name": "tokenId",
          "type": "uint256"
        }
      ],
      "name": "transferFrom",
      "outputs": [],
      "stateMutability": "nonpayable",
      "type": "function"
    },
    {
      "inputs": [
        {
          "internalType": "uint256",
          "name": "tokenId",
          "type": "uint256"
        }
      ],
      "name": "verifyMarksheet",
      "outputs": [
        {
          "internalType": "string",
          "name": "",
          "type": "string"
        }
      ],
      "stateMutability": "view",
      "type": "function"
    }
  ],
  "bytecode": "0x608060405234801561001057600080fd5b506040518060400160405280600c81526020017f4d61726b73686565744e465400000000000000000000000000000000000000008152506040518060400160405280600581526020017f4d534e4654000000000000000000000000000000000000000000000000000000815250816000908161008c91906104aa565b50806001908161009c91906104aa565b5050506100b26000801b336100e960201b60201c565b506100e37f114e74f6ea3bd819998f78687bfcb11b140da08e9b7d222fa9c1f1ba1f2aa122336100e960201b60201c565b5061057c565b60006100fb83836101e760201b60201c565b6101dc5760016007600085815260200190815260200160002060000160008473ffffffffffffffffffffffffffffffffffffffff1673ffffffffffffffffffffffffffffffffffffffff16815260200190815260200160002060006101000a81548160ff02191690831515021790555061017961025260201b60201c565b73ffffffffffffffffffffffffffffffffffffffff168273ffffffffffffffffffffffffffffffffffffffff16847f2f8788117e7eff1d82e926ec794901d17c78024a50270940304540a733656f0d60405160405180910390a4600190506101e1565b600090505b92915050565b60006007600084815260200190815260200160002060000160008373ffffffffffffffffffffffffffffffffffffffff1673ffffffffffffffffffffffffffffffffffffffff16815260200190815260200160002060009054906101000a900460ff16905092915050565b600033905090565b600081519050919050565b7f4e487b7100000000000000000000000000000000000000000000000000000000600052604160045260246000fd5b7f4e487b7100000000000000000000000000000000000000000000000000000000600052602260045260246000fd5b600060028204905060018216806102db57607f821691505b6020821081036102ee576102ed610294565b5b50919050565b60008190508160005260206000209050919050565b60006020601f8301049050919050565b600082821b905092915050565b6000600883026103567fffffffffffffffffffffffffffffffffffffffffffffffffffffffffffffffff82610319565b6103608683610319565b95508019841693508086168417925050509392505050565b6000819050919050565b6000819050919050565b60006103a76103a261039d84610378565b610382565b610378565b9050919050565b6000819050919050565b6103c18361038c565b6103d56103cd826103ae565b848454610326565b825550505050565b600090565b6103ea6103dd565b6103f58184846103b8565b505050565b5b818110156104195761040e6000826103e2565b6001810190506103fb565b5050565b601f82111561045e5761042f816102f4565b61043884610309565b81016020851015610447578190505b61045b61045385610309565b8301826103fa565b50505b505050565b600082821c905092915050565b600061048160001984600802610463565b1980831691505092915050565b600061049a8383610470565b9150826002028217905092915050565b6104b38261025a565b67ffffffffffffffff8111156104cc576104cb610265565b5b6104d682546102c3565b6104e182828561041d565b600060209050601f8311600181146105145760008415610502578287015190505b61050c858261048e565b865550610574565b601f198416610522866102f4565b60005b8281101561054a57848901518255600182019150602085019450602081019050610525565b868310156105675784890151610563601f891682610470565b8355505b6001600288020188555050505b505050505050565b612fb88061058b6000396000f3fe608060405234801561001057600080fd5b506004361061018e5760003560e01c806370a08231116100de578063a22cb46511610097578063c87b56dd11610071578063c87b56dd146104a3578063d0beb13e146104d3578063d547741f146104ef578063e985e9c51461050b5761018e565b8063a22cb4651461044f578063af5b22911461046b578063b88d4fde146104875761018e565b806370a082311461037957806382aefa24146103a95780638747d5ed146103c757806391d14854146103e357806395d89b4114610413578063a217fddf146104315761018e565b8063248a9ca31161014b57806342842e0e1161012557806342842e0e146102cd5780635b8a42e2146102e95780636352211e14610319578063651355b4146103495761018e565b8063248a9ca3146102655780632f2ff15d1461029557806336568abe146102b15761018e565b806301ffc9a71461019357806304636ea0146101c357806306fdde03146101df578063081812fc146101fd578063095ea7b31461022d57806323b872dd14610249575b600080fd5b6101ad60048036038101906101a89190612270565b61053b565b6040516101ba91906122b8565b60405180910390f35b6101dd60048036038101906101d89190612477565b61054d565b005b6101e761063d565b6040516101f49190612552565b60405180910390f35b610217600480360381019061021291906125aa565b6106cf565b60405161022491906125e6565b60405180910390f35b61024760048036038101906102429190612601565b6106eb565b005b610263600480360381019061025e9190612641565b610701565b005b61027f600480360381019061027a91906126ca565b610803565b60405161028c9190612706565b60405180910390f35b6102af60048036038101906102aa9190612721565b610823565b005b6102cb60048036038101906102c69190612721565b610845565b005b6102e760048036038101906102e29190612641565b6108c0565b005b61030360048036038101906102fe91906125aa565b6108e0565b6040516103109190612552565b60405180910390f35b610333600480360381019061032e91906125aa565b61093a565b60405161034091906125e6565b60405180910390f35b610363600480360381019061035e91906125aa565b61094c565b60405161037091906125e6565b60405180910390f35b610393600480360381019061038e9190612761565b61097f565b6040516103a0919061279d565b60405180910390f35b6103b1610a39565b6040516103be9190612706565b60405180910390f35b6103e160048036038101906103dc9190612761565b610a5d565b005b6103fd60048036038101906103f89190612721565b610a99565b60405161040a91906122b8565b60405180910390f35b61041b610b04565b6040516104289190612552565b60405180910390f35b610439610b96565b6040516104469190612706565b60405180910390f35b610469600480360381019061046491906127e4565b610b9d565b005b61048560048036038101906104809190612761565b610bb3565b005b6104a1600480360381019061049c91906128c5565b610bef565b005b6104bd60048036038101906104b891906125aa565b610c14565b6040516104ca9190612552565b60405180910390f35b6104ed60048036038101906104e891906125aa565b610d27565b005b61050960048036038101906105049190612721565b610e13565b005b61052560048036038101906105209190612948565b610e35565b60405161053291906122b8565b60405180910390f35b600061054682610ec9565b9050919050565b7f114e74f6ea3bd819998f78687bfcb11b140da08e9b7d222fa9c1f1ba1f2aa12261057781610f43565b6008600081548092919061058a906129b7565b9190505550600060085490506105a08482610f57565b6105aa8184610f75565b836009600083815260200190815260200160002060006101000a81548173ffffffffffffffffffffffffffffffffffffffff021916908373ffffffffffffffffffffffffffffffffffffffff1602179055507f97490636fc0c1d6ce5e36e5510129d8603f442203b440a92884548fb8dc36d6281858560405161062f939291906129ff565b60405180910390a150505050565b60606000805461064c90612a6c565b80601f016020809104026020016040519081016040528092919081815260200182805461067890612a6c565b80156106c55780601f1061069a576101008083540402835291602001916106c5565b820191906000526020600020905b8154815290600101906020018083116106a857829003601f168201915b5050505050905090565b60006106da82610fd1565b506106e482611059565b9050919050565b6106fd82826106f8611096565b61109e565b5050565b600073ffffffffffffffffffffffffffffffffffffffff168273ffffffffffffffffffffffffffffffffffffffff16036107735760006040517f64a0ae9200000000000000000000000000000000000000000000000000000000815260040161076a91906125e6565b60405180910390fd5b60006107878383610782611096565b6110b0565b90508373ffffffffffffffffffffffffffffffffffffffff168173ffffffffffffffffffffffffffffffffffffffff16146107fd578382826040517f64283d7b0000000000000000000000000000000000000000000000000000000081526004016107f493929190612a9d565b60405180910390fd5b50505050565b600060076000838152602001908152602001600020600101549050919050565b61082c82610803565b61083581610f43565b61083f83836112ca565b50505050565b61084d611096565b73ffffffffffffffffffffffffffffffffffffffff168173ffffffffffffffffffffffffffffffffffffffff16146108b1576040517f6697b23200000000000000000000000000000000000000000000000000000000815260040160405180910390fd5b6108bb82826113bc565b505050565b6108db83838360405180602001604052806000815250610bef565b505050565b60606108eb826114af565b61092a576040517f08c379a000000000000000000000000000000000000000000000000000000000815260040161092190612b20565b60405180910390fd5b61093382610c14565b9050919050565b600061094582610fd1565b9050919050565b60096020528060005260406000206000915054906101000a900473ffffffffffffffffffffffffffffffffffffffff1681565b60008073ffffffffffffffffffffffffffffffffffffffff168273ffffffffffffffffffffffffffffffffffffffff16036109f25760006040517f89c62b640000000000000000000000000000000000000000000000000000000081526004016109e991906125e6565b60405180910390fd5b600360008373ffffffffffffffffffffffffffffffffffffffff1673ffffffffffffffffffffffffffffffffffffffff168152602001908152602001600020549050919050565b7f114e74f6ea3bd819998f78687bfcb11b140da08e9b7d222fa9c1f1ba1f2aa12281565b6000801b610a6a81610f43565b610a947f114e74f6ea3bd819998f78687bfcb11b140da08e9b7d222fa9c1f1ba1f2aa122836113bc565b505050565b60006007600084815260200190815260200160002060000160008373ffffffffffffffffffffffffffffffffffffffff1673ffffffffffffffffffffffffffffffffffffffff16815260200190815260200160002060009054906101000a900460ff16905092915050565b606060018054610b1390612a6c565b80601f0160208091040260200160405190810160405280929190818152602001828054610b3f90612a6c565b8015610b8c5780601f10610b6157610100808354040283529160200191610b8c565b820191906000526020600020905b815481529060010190602001808311610b6f57829003601f168201915b5050505050905090565b6000801b81565b610baf610ba8611096565b838361151b565b5050565b6000801b610bc081610f43565b610bea7f114e74f6ea3bd819998f78687bfcb11b140da08e9b7d222fa9c1f1ba1f2aa122836112ca565b505050565b610bfa848484610701565b610c0e610c05611096565b8585858561168a565b50505050565b6060610c1f82610fd1565b506000600660008481526020019081526020016000208054610c4090612a6c565b80601f0160208091040260200160405190810160405280929190818152602001828054610c6c90612a6c565b8015610cb95780601f10610c8e57610100808354040283529160200191610cb9565b820191906000526020600020905b815481529060010190602001808311610c9c57829003601f168201915b505050505090506000610cca61183b565b90506000815103610cdf578192505050610d22565b600082511115610d14578082604051602001610cfc929190612b7c565b60405160208183030381529060405292505050610d22565b610d1d84611852565b925050505b919050565b7f114e74f6ea3bd819998f78687bfcb11b140da08e9b7d222fa9c1f1ba1f2aa122610d5181610f43565b610d5a826114af565b610d99576040517f08c379a0000000000000000000000000000000000000000000000000000000008152600401610d9090612b20565b60405180910390fd5b610da2826118bb565b6009600083815260200190815260200160002060006101000a81549073ffffffffffffffffffffffffffffffffffffffff02191690557f3293133c8e0c14f9cfb277c2903088ba8631c25da39d91d0bdd0f4f6ee2e1a7d82604051610e07919061279d565b60405180910390a15050565b610e1c82610803565b610e2581610f43565b610e2f83836113bc565b50505050565b6000600560008473ffffffffffffffffffffffffffffffffffffffff1673ffffffffffffffffffffffffffffffffffffffff16815260200190815260200160002060008373ffffffffffffffffffffffffffffffffffffffff1673ffffffffffffffffffffffffffffffffffffffff16815260200190815260200160002060009054906101000a900460ff16905092915050565b60007f7965db0b000000000000000000000000000000000000000000000000000000007bffffffffffffffffffffffffffffffffffffffffffffffffffffffff1916827bffffffffffffffffffffffffffffffffffffffffffffffffffffffff19161480610f3c5750610f3b82611941565b5b9050919050565b610f5481610f4f611096565b6119a2565b50565b610f718282604051806020016040528060008152506119f3565b5050565b80600660008481526020019081526020016000209081610f959190612d4c565b507ff8e1a15aba9398e019f0b49df1a4fde98ee17ae345cb5f6b5e2c27f5033e8ce782604051610fc5919061279d565b60405180910390a15050565b600080610fdd83611a17565b9050600073ffffffffffffffffffffffffffffffffffffffff168173ffffffffffffffffffffffffffffffffffffffff160361105057826040517f7e273289000000000000000000000000000000000000000000000000000000008152600401611047919061279d565b60405180910390fd5b80915050919050565b60006004600083815260200190815260200160002060009054906101000a900473ffffffffffffffffffffffffffffffffffffffff169050919050565b600033905090565b6110ab8383836001611a54565b505050565b6000806110bc84611a17565b9050600073ffffffffffffffffffffffffffffffffffffffff168373ffffffffffffffffffffffffffffffffffffffff16146110fe576110fd818486611c19565b5b600073ffffffffffffffffffffffffffffffffffffffff168173ffffffffffffffffffffffffffffffffffffffff161461118f57611140600085600080611a54565b6001600360008373ffffffffffffffffffffffffffffffffffffffff1673ffffffffffffffffffffffffffffffffffffffff168152602001908152602001600020600082825403925050819055505b600073ffffffffffffffffffffffffffffffffffffffff168573ffffffffffffffffffffffffffffffffffffffff1614611212576001600360008773ffffffffffffffffffffffffffffffffffffffff1673ffffffffffffffffffffffffffffffffffffffff168152602001908152602001600020600082825401925050819055505b846002600086815260200190815260200160002060006101000a81548173ffffffffffffffffffffffffffffffffffffffff021916908373ffffffffffffffffffffffffffffffffffffffff160217905550838573ffffffffffffffffffffffffffffffffffffffff168273ffffffffffffffffffffffffffffffffffffffff167fddf252ad1be2c89b69c2b068fc378daa952ba7f163c4a11628f55a4df523b3ef60405160405180910390a4809150509392505050565b60006112d68383610a99565b6113b15760016007600085815260200190815260200160002060000160008473ffffffffffffffffffffffffffffffffffffffff1673ffffffffffffffffffffffffffffffffffffffff16815260200190815260200160002060006101000a81548160ff02191690831515021790555061134e611096565b73ffffffffffffffffffffffffffffffffffffffff168273ffffffffffffffffffffffffffffffffffffffff16847f2f8788117e7eff1d82e926ec794901d17c78024a50270940304540a733656f0d60405160405180910390a4600190506113b6565b600090505b92915050565b60006113c88383610a99565b156114a45760006007600085815260200190815260200160002060000160008473ffffffffffffffffffffffffffffffffffffffff1673ffffffffffffffffffffffffffffffffffffffff16815260200190815260200160002060006101000a81548160ff021916908315150217905550611441611096565b73ffffffffffffffffffffffffffffffffffffffff168273ffffffffffffffffffffffffffffffffffffffff16847ff6391f5c32d9c69d2a47ea670b442974b53935d1edc7fd64eb21e047a839171b60405160405180910390a4600190506114a9565b600090505b92915050565b60008073ffffffffffffffffffffffffffffffffffffffff166009600084815260200190815260200160002060009054906101000a900473ffffffffffffffffffffffffffffffffffffffff1673ffffffffffffffffffffffffffffffffffffffff1614159050919050565b600073ffffffffffffffffffffffffffffffffffffffff168273ffffffffffffffffffffffffffffffffffffffff160361158c57816040517f5b08ba1800000000000000000000000000000000000000000000000000000000815260040161158391906125e6565b60405180910390fd5b80600560008573ffffffffffffffffffffffffffffffffffffffff1673ffffffffffffffffffffffffffffffffffffffff16815260200190815260200160002060008473ffffffffffffffffffffffffffffffffffffffff1673ffffffffffffffffffffffffffffffffffffffff16815260200190815260200160002060006101000a81548160ff0219169083151502179055508173ffffffffffffffffffffffffffffffffffffffff168373ffffffffffffffffffffffffffffffffffffffff167f17307eab39ab6107e8899845ad3d59bd9653f200f220920489ca2b5937696c318360405161167d91906122b8565b60405180910390a3505050565b60008373ffffffffffffffffffffffffffffffffffffffff163b1115611834578273ffffffffffffffffffffffffffffffffffffffff1663150b7a02868685856040518563ffffffff1660e01b81526004016116e99493929190612e73565b6020604051808303816000875af192505050801561172557506040513d601f19601f820116820180604052508101906117229190612ed4565b60015b6117a9573d8060008114611755576040519150601f19603f3d011682016040523d82523d6000602084013e61175a565b606091505b5060008151036117a157836040517f64a0ae9200000000000000000000000000000000000000000000000000000000815260040161179891906125e6565b60405180910390fd5b805181602001fd5b63150b7a0260e01b7bffffffffffffffffffffffffffffffffffffffffffffffffffffffff1916817bffffffffffffffffffffffffffffffffffffffffffffffffffffffff19161461183257836040517f64a0ae9200000000000000000000000000000000000000000000000000000000815260040161182991906125e6565b60405180910390fd5b505b5050505050565b606060405180602001604052806000815250905090565b606061185d82610fd1565b50600061186861183b565b9050600081511161188857604051806020016040528060008152506118b3565b8061189284611cdd565b6040516020016118a3929190612b7c565b6040516020818303038152906040525b915050919050565b60006118ca60008360006110b0565b9050600073ffffffffffffffffffffffffffffffffffffffff168173ffffffffffffffffffffffffffffffffffffffff160361193d57816040517f7e273289000000000000000000000000000000000000000000000000000000008152600401611934919061279d565b60405180910390fd5b5050565b6000634906490660e01b7bffffffffffffffffffffffffffffffffffffffffffffffffffffffff1916827bffffffffffffffffffffffffffffffffffffffffffffffffffffffff1916148061199b575061199a82611dab565b5b9050919050565b6119ac8282610a99565b6119ef5780826040517fe2517d3f0000000000000000000000000000000000000000000000000000000081526004016119e6929190612f01565b60405180910390fd5b5050565b6119fd8383611e8d565b611a12611a08611096565b600085858561168a565b505050565b60006002600083815260200190815260200160002060009054906101000a900473ffffffffffffffffffffffffffffffffffffffff169050919050565b8080611a8d5750600073ffffffffffffffffffffffffffffffffffffffff168273ffffffffffffffffffffffffffffffffffffffff1614155b15611bc1576000611a9d84610fd1565b9050600073ffffffffffffffffffffffffffffffffffffffff168373ffffffffffffffffffffffffffffffffffffffff1614158015611b0857508273ffffffffffffffffffffffffffffffffffffffff168173ffffffffffffffffffffffffffffffffffffffff1614155b8015611b1b5750611b198184610e35565b155b15611b5d57826040517fa9fbf51f000000000000000000000000000000000000000000000000000000008152600401611b5491906125e6565b60405180910390fd5b8115611bbf57838573ffffffffffffffffffffffffffffffffffffffff168273ffffffffffffffffffffffffffffffffffffffff167f8c5be1e5ebec7d5bd14f71427d1e84f3dd0314c0f7b2291e5b200ac8c7c3b92560405160405180910390a45b505b836004600085815260200190815260200160002060006101000a81548173ffffffffffffffffffffffffffffffffffffffff021916908373ffffffffffffffffffffffffffffffffffffffff16021790555050505050565b611c24838383611f86565b611cd857600073ffffffffffffffffffffffffffffffffffffffff168373ffffffffffffffffffffffffffffffffffffffff1603611c9957806040517f7e273289000000000000000000000000000000000000000000000000000000008152600401611c90919061279d565b60405180910390fd5b81816040517f177e802f000000000000000000000000000000000000000000000000000000008152600401611ccf929190612f2a565b60405180910390fd5b505050565b606060006001611cec84612047565b01905060008167ffffffffffffffff811115611d0b57611d0a61234c565b5b6040519080825280601f01601f191660200182016040528015611d3d5781602001600182028036833780820191505090505b509050600082602001820190505b600115611da0578080600190039150507f3031323334353637383961626364656600000000000000000000000000000000600a86061a8153600a8581611d9457611d93612f53565b5b04945060008503611d4b575b819350505050919050565b60007f80ac58cd000000000000000000000000000000000000000000000000000000007bffffffffffffffffffffffffffffffffffffffffffffffffffffffff1916827bffffffffffffffffffffffffffffffffffffffffffffffffffffffff19161480611e7657507f5b5e139f000000000000000000000000000000000000000000000000000000007bffffffffffffffffffffffffffffffffffffffffffffffffffffffff1916827bffffffffffffffffffffffffffffffffffffffffffffffffffffffff1916145b80611e865750611e858261219a565b5b9050919050565b600073ffffffffffffffffffffffffffffffffffffffff168273ffffffffffffffffffffffffffffffffffffffff1603611eff5760006040517f64a0ae92000000000000000000000000000000000000000000000000000000008152600401611ef691906125e6565b60405180910390fd5b6000611f0d838360006110b0565b9050600073ffffffffffffffffffffffffffffffffffffffff168173ffffffffffffffffffffffffffffffffffffffff1614611f815760006040517f73c6ac6e000000000000000000000000000000000000000000000000000000008152600401611f7891906125e6565b60405180910390fd5b505050565b60008073ffffffffffffffffffffffffffffffffffffffff168373ffffffffffffffffffffffffffffffffffffffff161415801561203e57508273ffffffffffffffffffffffffffffffffffffffff168473ffffffffffffffffffffffffffffffffffffffff161480611fff5750611ffe8484610e35565b5b8061203d57508273ffffffffffffffffffffffffffffffffffffffff1661202583611059565b73ffffffffffffffffffffffffffffffffffffffff16145b5b90509392505050565b600080600090507a184f03e93ff9f4daa797ed6e38ed64bf6a1f01000000000000000083106120a5577a184f03e93ff9f4daa797ed6e38ed64bf6a1f010000000000000000838161209b5761209a612f53565b5b0492506040810190505b6d04ee2d6d415b85acef810000000083106120e2576d04ee2d6d415b85acef810000000083816120d8576120d7612f53565b5b0492506020810190505b662386f26fc10000831061211157662386f26fc10000838161210757612106612f53565b5b0492506010810190505b6305f5e100831061213a576305f5e10083816121305761212f612f53565b5b0492506008810190505b612710831061215f57612710838161215557612154612f53565b5b0492506004810190505b60648310612182576064838161217857612177612f53565b5b0492506002810190505b600a8310612191576001810190505b80915050919050565b60007f01ffc9a7000000000000000000000000000000000000000000000000000000007bffffffffffffffffffffffffffffffffffffffffffffffffffffffff1916827bffffffffffffffffffffffffffffffffffffffffffffffffffffffff1916149050919050565b6000604051905090565b600080fd5b600080fd5b60007fffffffff0000000000000000000000000000000000000000000000000000000082169050919050565b61224d81612218565b811461225857600080fd5b50565b60008135905061226a81612244565b92915050565b6000602082840312156122865761228561220e565b5b60006122948482850161225b565b91505092915050565b60008115159050919050565b6122b28161229d565b82525050565b60006020820190506122cd60008301846122a9565b92915050565b600073ffffffffffffffffffffffffffffffffffffffff82169050919050565b60006122fe826122d3565b9050919050565b61230e816122f3565b811461231957600080fd5b50565b60008135905061232b81612305565b92915050565b600080fd5b600080fd5b6000601f19601f8301169050919050565b7f4e487b7100000000000000000000000000000000000000000000000000000000600052604160045260246000fd5b6123848261233b565b810181811067ffffffffffffffff821117156123a3576123a261234c565b5b80604052505050565b60006123b6612204565b90506123c2828261237b565b919050565b600067ffffffffffffffff8211156123e2576123e161234c565b5b6123eb8261233b565b9050602081019050919050565b82818337600083830152505050565b600061241a612415846123c7565b6123ac565b90508281526020810184848401111561243657612435612336565b5b6124418482856123f8565b509392505050565b600082601f83011261245e5761245d612331565b5b813561246e848260208601612407565b91505092915050565b6000806040838503121561248e5761248d61220e565b5b600061249c8582860161231c565b925050602083013567ffffffffffffffff8111156124bd576124bc612213565b5b6124c985828601612449565b9150509250929050565b600081519050919050565b600082825260208201905092915050565b60005b8381101561250d5780820151818401526020810190506124f2565b60008484015250505050565b6000612524826124d3565b61252e81856124de565b935061253e8185602086016124ef565b6125478161233b565b840191505092915050565b6000602082019050818103600083015261256c8184612519565b905092915050565b6000819050919050565b61258781612574565b811461259257600080fd5b50565b6000813590506125a48161257e565b92915050565b6000602082840312156125c0576125bf61220e565b5b60006125ce84828501612595565b91505092915050565b6125e0816122f3565b82525050565b60006020820190506125fb60008301846125d7565b92915050565b600080604083850312156126185761261761220e565b5b60006126268582860161231c565b925050602061263785828601612595565b9150509250929050565b60008060006060848603121561265a5761265961220e565b5b60006126688682870161231c565b93505060206126798682870161231c565b925050604061268a86828701612595565b9150509250925092565b6000819050919050565b6126a781612694565b81146126b257600080fd5b50565b6000813590506126c48161269e565b92915050565b6000602082840312156126e0576126df61220e565b5b60006126ee848285016126b5565b91505092915050565b61270081612694565b82525050565b600060208201905061271b60008301846126f7565b92915050565b600080604083850312156127385761273761220e565b5b6000612746858286016126b5565b92505060206127578582860161231c565b9150509250929050565b6000602082840312156127775761277661220e565b5b60006127858482850161231c565b91505092915050565b61279781612574565b82525050565b60006020820190506127b2600083018461278e565b92915050565b6127c18161229d565b81146127cc57600080fd5b50565b6000813590506127de816127b8565b92915050565b600080604083850312156127fb576127fa61220e565b5b60006128098582860161231c565b925050602061281a858286016127cf565b9150509250929050565b600067ffffffffffffffff82111561283f5761283e61234c565b5b6128488261233b565b9050602081019050919050565b600061286861286384612824565b6123ac565b90508281526020810184848401111561288457612883612336565b5b61288f8482856123f8565b509392505050565b600082601f8301126128ac576128ab612331565b5b81356128bc848260208601612855565b91505092915050565b600080600080608085870312156128df576128de61220e565b5b60006128ed8782880161231c565b94505060206128fe8782880161231c565b935050604061290f87828801612595565b925050606085013567ffffffffffffffff8111156129305761292f612213565b5b61293c87828801612897565b91505092959194509250565b6000806040838503121561295f5761295e61220e565b5b600061296d8582860161231c565b925050602061297e8582860161231c565b9150509250929050565b7f4e487b7100000000000000000000000000000000000000000000000000000000600052601160045260246000fd5b60006129c282612574565b91507fffffffffffffffffffffffffffffffffffffffffffffffffffffffffffffffff82036129f4576129f3612988565b5b600182019050919050565b6000606082019050612a14600083018661278e565b612a2160208301856125d7565b8181036040830152612a338184612519565b9050949350505050565b7f4e487b7100000000000000000000000000000000000000000000000000000000600052602260045260246000fd5b60006002820490506001821680612a8457607f821691505b602082108103612a9757612a96612a3d565b5b50919050565b6000606082019050612ab260008301866125d7565b612abf602083018561278e565b612acc60408301846125d7565b949350505050565b7f4d61726b736865657420646f6573206e6f742065786973740000000000000000600082015250565b6000612b0a6018836124de565b9150612b1582612ad4565b602082019050919050565b60006020820190508181036000830152612b3981612afd565b9050919050565b600081905092915050565b6000612b56826124d3565b612b608185612b40565b9350612b708185602086016124ef565b80840191505092915050565b6000612b888285612b4b565b9150612b948284612b4b565b91508190509392505050565b60008190508160005260206000209050919050565b60006020601f8301049050919050565b600082821b905092915050565b600060088302612c027fffffffffffffffffffffffffffffffffffffffffffffffffffffffffffffffff82612bc5565b612c0c8683612bc5565b95508019841693508086168417925050509392505050565b6000819050919050565b6000612c49612c44612c3f84612574565b612c24565b612574565b9050919050565b6000819050919050565b612c6383612c2e565b612c77612c6f82612c50565b848454612bd2565b825550505050565b600090565b612c8c612c7f565b612c97818484612c5a565b505050565b5b81811015612cbb57612cb0600082612c84565b600181019050612c9d565b5050565b601f821115612d0057612cd181612ba0565b612cda84612bb5565b81016020851015612ce9578190505b612cfd612cf585612bb5565b830182612c9c565b50505b505050565b600082821c905092915050565b6000612d2360001984600802612d05565b1980831691505092915050565b6000612d3c8383612d12565b9150826002028217905092915050565b612d55826124d3565b67ffffffffffffffff811115612d6e57612d6d61234c565b5b612d788254612a6c565b612d83828285612cbf565b600060209050601f831160018114612db65760008415612da4578287015190505b612dae8582612d30565b865550612e16565b601f198416612dc486612ba0565b60005b82811015612dec57848901518255600182019150602085019450602081019050612dc7565b86831015612e095784890151612e05601f891682612d12565b8355505b6001600288020188555050505b505050505050565b600081519050919050565b600082825260208201905092915050565b6000612e4582612e1e565b612e4f8185612e29565b9350612e5f8185602086016124ef565b612e688161233b565b840191505092915050565b6000608082019050612e8860008301876125d7565b612e9560208301866125d7565b612ea2604083018561278e565b8181036060830152612eb48184612e3a565b905095945050505050565b600081519050612ece81612244565b92915050565b600060208284031215612eea57612ee961220e565b5b6000612ef884828501612ebf565b91505092915050565b6000604082019050612f1660008301856125d7565b612f2360208301846126f7565b9392505050565b6000604082019050612f3f60008301856125d7565b612f4c602083018461278e565b9392505050565b7f4e487b7100000000000000000000000000000000000000000000000000000000600052601260045260246000fdfea2646970667358221220f1a32abcf41bf7bbdbcecd7cb9147f2f74c06ad808179798fa46d24c43ef87d764736f6c634300081c0033",
  "linkReferences": {},
  "deployedLinkReferences": {}
}